:020000040000FA
:1017000001C0000014E0A2E5B4E0E0EFF4E102C0A3
:1017100005900D92A836B107D9F724E0AEE7B2E004
:1017200001C01D92A235B207E1F7CBC6EDE4F1E0AE
:10173000108212AA1092B1011092E30110921502C8
:101740001092470208950F931F930091AA021091DF
:10175000AB022091AC023091AD02400F511F621FCD
:10176000731FFC0140835183628373831F910F9128
:10177000089540EC57E269E070E08EEA92E0E3CF32
:101780000F931F93FC0181E000811181228133813D
:101790004091AA025091AB026091AC027091AD02EF
:1017A000041715072607370708F080E01F910F91EF
:1017B0000895F8948091310190913201A091330104
:1017C000B091340178948093AA029093AB02A093D5
:1017D000AC02B093AD020895E62FF0E0EE0FFF1FCC
:1017E000E050FF4F9183808308950F931F93CF9311
:1017F0008C01C0E06C2FC801EFDFCF5FC630D1F79E
:10180000CF911F910F9108958CE0E9E8F2E0A0E0FC
:10181000B1E001900D928A95E1F708958CE0E0E047
:10182000F1E0A9E8B2E001900D928A95E1F7089500
:1018300028E1829FC001112487539C4FA1CF0F93B1
:101840001F93CF93DF93FC01BC016F5F7F4F8FEF3E
:101850009FEF0E94260AEB01009156041091570455
:101860002091580430915904D901C8014DE0880FE6
:10187000991FAA1FBB1F4A95D1F780279127A2273E
:10188000B327AC01BD0111E1769567955795479552
:101890001A95D1F784279527A627B7278C019D0194
:1018A00045E0000F111F221F331F4A95D1F708276B
:1018B00019272A273B27C801BE010E94260ACB010F
:1018C000E617F70788F20093560410935704209305
:1018D000580430935904DF91CF911F910F910895CF
:1018E0009091B202282F209529232093B2029823A9
:1018F00081E009F480E008959C01082E000C990B0A
:10190000861B910967FD939597FF03C0919581957B
:101910009109432F032E000C550B471B510977FDEE
:10192000539557FF03C0519541955109230F2195B8
:10193000022E000C330B670F6195261B310967FDE2
:10194000339537FF03C0319521953109841710F085
:10195000821720F4842F421708F4822F08959F9253
:10196000AF92BF92CF92DF92EF92FF920F931F93AD
:10197000CF93DF93C090B803082F10E0D090B90345
:10198000DC1408F0A3C08D2D90E0880F991FFC0196
:10199000E754FD4F208122952F702017110609F082
:1019A00091C0B12CA12C9C0128543D4F7901AC145D
:1019B00008F088C0F501EE0FFF1FDF01A754BD4FEF
:1019C0008C9182958F7081F5E854FD4F7081672F5F
:1019D000660F660F65956595872F82958695869526
:1019E000837071817F70770F770F782B770F770F68
:1019F00075957595F701C0819C2E990C990C95945D
:101A000095948C2F8295869586958370C181CF7031
:101A1000CC0FCC0FC82BCC0FCC0FC595C595892DFD
:101A20009C2F6ADF833030F0FFEFAF1ABF0ABFCFC1
:101A3000F092B702F090B702FC1408F041C0EF2D0D
:101A4000F0E0EE0FFF1FDF01A754BD4F8C91829590
:101A50008F70F3948111ECCFE854FD4FD081ED2EBF
:101A6000EE0CEE0CE594E5948D2F82958695869587
:101A70008370D181DF70DD0FDD0FD82BDD0FDD0F1F
:101A8000D595D5956E2D7D2F892D9C2F35DF8330F3
:101A900078F69092B502C093B602E092B302D0936A
:101AA000B402F092B70281E0DF91CF911F910F91C4
:101AB000FF90EF90DF90CF90BF90AF909F900895F0
:101AC0001092B702D394D092B90358CF1092B903B1
:101AD00080E0EACFEF92FF921F93CF93DF93182F0E
:101AE000D0E0C0E0812F3BDF882311F02196FACFB0
:101AF000209779F0CE010197A2DE7C01D0E0C0E012
:101B0000812F2DDF882329F0EC16FD0619F0219690
:101B1000F7CF80E0DF91CF911F91FF90EF90089574
:101B2000BC0180E090E0E8CE8F929F92BF92CF926E
:101B3000DF92EF92FF920F931F93CF93DF937C017D
:101B40006B01D42FC22F86E992E01ADE882369F058
:101B500086E0C89FA001112441505109052E000CB8
:101B6000660B770B86E992E0EEDD0091AA021091F8
:101B7000AB022091AC023091AD028091960290911F
:101B80009702A0919802B0919902081719072A07A5
:101B90003B0708F039C0BC01CD01601B710B820B03
:101BA000930B2C2F30E050E040E0F7D705E0021B0C
:101BB0006D2F70E086E090E0DDD7B62ED0E0C0E07B
:101BC00010E086E0882E912CC8018C0F9D1FB40177
:101BD000D1D7282F8C2F6B2DADD7622FF701911104
:101BE000F60180819181F8DD2196C630D10561F73B
:101BF000DF91CF911F910F91FF90EF90DF90CF90E9
:101C0000BF909F908F90089560E070E0CB01C9CFA6
:101C10008091A80208958091A4020895E82FF0E031
:101C2000EE0FFF1FE25AFB4F8081918108958F5F75
:101C3000853008F080E008959091B803992321F051
:101C400081E02091A202291380E008955F926F92B3
:101C50007F928F929F92AF92BF92CF92DF92EF923C
:101C6000FF920F931F93CF93DF933B016A015901BA
:101C70004801FA011082F9011082F8011082509097
:101C8000B803D0E0C0E0E82EF12CC515C0F58E01F8
:101C9000000F111FF801E854FD4F7081672F660F88
:101CA000660F65956595872F8295869586958370D5
:101CB00071817F70770F770F782B770F770F75957E
:101CC0007595C30119DE8130C1F4F60180818F5F03
:101CD0008083F801E754FD4F808182958F70282F13
:101CE00030E021F0F4012E153F0521F42E153F05BB
:101CF00021F4F50180818F5F80832196C6CFDF912B
:101D0000CF911F910F91FF90EF90DF90CF90BF90F8
:101D1000AF909F908F907F906F905F9008959F926B
:101D2000AF92BF92CF92DF92EF92FF920F931F93E9
:101D3000CF93DF9300D000D000D0CDB7DEB7E12C39
:101D400080E8F82E94E1992E8091BA0308DE88236A
:101D500009F456C06091B5027091B6028E010C5F15
:101D60001F4F9E012B5F3F4FAE014A5F5F4F809137
:101D7000BA036CDF6091B3027091B4020350110991
:101D80009E012E5F3F4FAE014D5F5F4F8091BA03C2
:101D90005DDF1B816091B3027091B4028091B50246
:101DA0009091B602A9DD2981299D900111246A81B3
:101DB00004E0609FB001112444E150E0823028F03B
:101DC0004D810CEF0403A0011124C901860F971F58
:101DD000840F951F21E030E0163010F030E020E055
:101DE000820F931FE816F9060CF0AECFA090B50253
:101DF000B090B602C090B302D090B4027C01A4CFE0
:101E0000A092B502B092B602C092B302D092B402D0
:101E100081E026960FB6F894DEBF0FBECDBFDF91EE
:101E2000CF911F910F91FF90EF90DF90CF90BF90D7
:101E3000AF909F900895CF92DF92FF920F931F93E0
:101E4000CF93DF9300D01F92CDB7DEB78091BA0356
:101E500041DEF82E882341F1C090B302D090B40245
:101E6000B6018091B5029091B60246DD813081F0D5
:101E70008E010F5F1F4F9E012E5F3F4FAE014D5FE2
:101E80005F4FB6018091BA03E1DE89818823F1F2C8
:101E90008F2D0F900F900F90DF91CF911F910F9189
:101EA000FF90DF90CF9008958091BA0313DEF82E53
:101EB000EFCF7F928F929F92AF92BF92CF92DF929D
:101EC000EF92FF920F931F93CF93DF93A82E992E3B
:101ED000742E8090B803082F880F110BE92E990FEC
:101EE000FF08D12CC12CB62EB29490EFB922C814A1
:101EF00008F052C0E601CC0FDD1FFE01E854FD4F93
:101F00008081682F660F660F65956595262F062ED2
:101F1000000C330B20173107F1F4982F929596950A
:101F20009695937081818F70880F880F892B880F09
:101F3000880F85958595082E000C990B8E159F05A9
:101F400051F4C854DD4F89818F708B2989838FEFBD
:101F5000C81AD80ACCCF7720D1F3FE01E754FD4F41
:101F6000808182958F7099F3FE01E854FD4F708156
:101F7000872F829586958695837071817F70770F04
:101F8000770F782B770F770F759575958A2D992D8B
:101F9000B3DC8130E1F6D5CFDF91CF911F910F9166
:101FA000FF90EF90DF90CF90BF90AF909F908F9079
:101FB0007F900895CF93DF93FC0138E1369FE001D5
:101FC0001124AE014E535C4FDA0152968C91529718
:101FD000811119C0C253DC4F988121E0290F27706D
:101FE000987F922B988393E052969C93639FD001A5
:101FF0001124A153BC4F01900D929A95E1F781E015
:10200000DF91CF91089580E0FBCFCF93DF9300D095
:1020100000D01F92CDB7DEB72091C10330E02F5F13
:102020003F4F922F9295907F8F70892B89832F70CD
:1020300033272093C103FB01808191819B838A8395
:102040006091BB03CE010196B5DF0F900F900F900A
:102050000F900F90DF91CF910895C7DB0C94101C67
:10206000CF92DF92EF92FF920F931F93CF93DF9364
:102070000E94141CD3DBD8ECEE24EA94F12C3FE14F
:10208000D32E0D2F10E0D09EC0011124B70172D5C0
:1020900081E0962F990F990F990FDFDF065042E0EC
:1020A00064E574E0812F0E94081C1F5F163059F709
:1020B000D452D43131F781E090E0CFDFF894C09072
:1020C0003101D0903201E0903301F09034017894E6
:1020D00010923F012BDB81E08093410180913F0111
:1020E00080FF4AC0F894C0923101D0923201E09250
:1020F0003301F09234010E94141C789481E08093A3
:10210000950237DB13DBD0E08FE1D82EEE24EA9482
:10211000F12C0D2F10E00A5FD09EC0011124B701F1
:1021200029D5862F8F71C160982F990FC17CC92B3B
:102130006295660F660F607CCF73C62B982F990F40
:10214000990F990F86958695982B8C2F86DF42E004
:1021500062E574E0812F0E94081C1F5F1630D9F6DB
:10216000DC5DD43BB1F6DF91CF911F910F91FF90D1
:10217000EF90DF90CF9048CB80914101882309F404
:10218000B1CFEDE4F1E080E09081992341F09481BA
:10219000933321F49581933309F481E01082F29610
:1021A00092E0E937F90781F7882309F497CF9ACFAE
:1021B00085E892E0E5DA882341F140ED57E060E000
:1021C00070E085E892E0BFDA8091CE03806480936E
:1021D000CE038091E60380648093E6038091FE0342
:1021E00080648093FE0380911604806480931604BB
:1021F00080912E04806480932E0480914604806434
:1022000080934604B6DA0C94141C0895CF92DF92A2
:10221000EF92FF920F931F93CF93DF930DE411E0A2
:10222000C2ECD3E0DD24D394F80180818823E9F067
:1022300083818733C1F448EC50E060E070E0CE0168
:10224000079681DA40E050E0BA01CE0143967BDA8E
:10225000F801E280CC24CA94CE0CF1E0CF1215C074
:10226000F80184818883F801108268960E5C1F4F04
:10227000F4E0C235DF07C1F6DF91CF911F910F91D6
:10228000FF90EF90DF90CF900895F801F580F7FE72
:1022900031C084818883F6FC8BDF9F2D96959695BF
:1022A000969597708C85282F2770921301C01A8AF3
:1022B000F2E0FC15C0F69F2D9770F92E982F969599
:1022C000969596959770F91699F09E81911110C088
:1022D000FF0CFF0CFF0C877CF82AFC864DEF4E0D9F
:1022E0004E8350E0B8016A5F7F4FCE01019677D4EC
:1022F000DF8AB9CF8481853109F0B5CF85818531F9
:1023000009F0B1CFADDEAFCF9F92AF92BF92CF9227
:10231000DF92EF92FF920F931F93CF93DF93EEE73D
:10232000F2E087E0DF011D928A95E9F7B12C9090E9
:10233000B803B91408F094C00B2D10E0000F111F62
:10234000F801E854FD4F8181807FA82EF801E75401
:10235000FD4FC081C295CF70D0E0C158DD4F88815C
:102360008F77AA2039F0811105C090917E029F5F7E
:1023700090937E028F5F8F7798819078892B8883E6
:10238000F12CE12CF801E854FD4F6F01E91408F03D
:102390003DC0F701EE0FFF1FDF01A754BD4F8C9129
:1023A00082958F7009F058C0E854FD4F7081672FF7
:1023B000660F660F65956595872F8295869586953C
:1023C000837071817F70770F770F782B770F770F7E
:1023D00075957595D6019C91892F880F880F292FA7
:1023E000229526952695237011969C919F70990FA2
:1023F000990F922B990F990F8595859595959595A0
:102400007BDA833048F588818068888390918402E4
:10241000911120C0A1101CC0F801E854FD4F90811B
:10242000892F880F880F292F2295269526952370AE
:1024300091819F70990F990F922B990F990F859504
:102440008595959595956CDB91E0833008F090E04B
:1024500090938402B3946BCFBFEFEB1AFB0A96CF35
:10246000DF91CF911F910F91FF90EF90DF90CF9070
:10247000BF90AF909F900895CF93DF9380919A0281
:1024800081111CC060919D0270919E02C0919B02BF
:10249000D0919C02CE0130DA823020F040E060E042
:1024A000CE0107DDB5DB41E0682F80919D02909160
:1024B0009E02FFDC29DF81E080939A02DF91CF91B9
:1024C0000895CF93DF9300D000D000D01F92CDB7F6
:1024D000DEB781E0809341016CD94BD98EEB9AEB4A
:1024E000909369048093680480E4809360008091F5
:1024F000560490915704A0915804B091590420E2D9
:1025000010922701309127013323E1F33091270105
:102510003130C1F330912701880F991FAA1FBB1FCB
:102520003170832B215061F78093560490935704A8
:10253000A0935804B09359040FB6F894A8958091CD
:102540006000886180936000109260000FBE86E09A
:102550008093BB0381E08093BA0342E5C42E44E03C
:10256000D42E70905A0460905B04A0905C04B090EC
:102570005D047D826E827F82562CFF24F39438E1C5
:10258000E32E80916804909169048E3B9A4B19F078
:1025900084E00E941E1C80913F0186FF2DC010E048
:1025A000812F46D9882341F11F5F1630C9F736D9EC
:1025B00010E00FC081E090E018D901E0010F612F19
:1025C00081E098EF09D9063009F400E00E94101C60
:1025D000102F80913E01882321F080913F0187FFD9
:1025E000E9CF12D980913F0187FD05C081E090E0DD
:1025F00034DD0E94121C34DD80913F0187FD30DD07
:10260000D8D880913F0180FDD3DD00DEF894809121
:102610003E0190913F018091B202892B8093B202DA
:1026200010923F0180914001789488E059D9882E1A
:10263000882379F080919502882309F472C0109262
:102640009502809141018F24811103C0F0924101D4
:10265000812C80E145D9482E8091BB0310E0863063
:1026600009F465C0E5D8882339F01092A3021092CE
:10267000A20286E08093BB039090BB03E6E09E1627
:1026800009F4ABC0D9DA8111A8C0092D10E0E09E91
:10269000F001E19EF00D1124EE53FC4F46814423DE
:1026A00081F08091A302882309F448C0813009F4A5
:1026B00073C0E09EF001E19EF00D1124EE53FC4F3B
:1026C0001682BADA81110AC0442009F486C140EDAD
:1026D00057E060E070E08DEB93E035D890E000913A
:1026E000BB03E2ECF3E080E0081393C190619387B1
:1026F0008F5F78968630C1F78DEB93E041D88111DA
:102700008AC18F81952D71D810E08091BC0381170B
:1027100008F49AC18091BA0381DA612F5DD81F5FF6
:10272000F4CF812C8ECF1F5F163009F4A5CF812FF7
:102730007FD88111F8CF1093BB039ECF433009F0AF
:10274000B8CF9E9CF0011124ED53FC4F8081863060
:1027500009F0AFCF81818093B8038281982F937065
:102760002091A4022093A5029093A402F092A902C2
:10277000982F969596959F702091A6022093A70278
:102780009093A60282958695869583708F5F80933D
:10279000A802F092A3028DCF342E36942090A2028C
:1027A000822D90E0BC01630D711D2091B80330E0D3
:1027B000443021F06217730709F07BCF880F991F0F
:1027C00050E09E9CB00111246D537C4F88549D4F66
:1027D00006D2320C3092A2026CCF02EC13E0F80168
:1027E00086818823A1F12091A6024091A4029181C3
:1027F000892F82958F708093C1039F70923009F466
:1028000082C0933009F488C09130F9F48281382F66
:1028100033704093A5023093A4029093A902982F9D
:10282000969596959F702093A7029093A602829505
:102830008695869583708F5F8093A80240E050E074
:10284000BA0186E992E00E942300F8011682085E30
:102850001F4FC016D10619F6DED91091A6020091BD
:10286000A402823009F0B1C0D3D99091BA031230DA
:1028700009F484C0153009F4A6C011115BC0209181
:10288000A502021305C02091A702222309F44BC020
:102890001092A1021092A00210929F0289134AC0C6
:1028A0009091A102911115C01092B7021092B90334
:1028B0009091BC03923009F452C008F045C09923AE
:1028C00009F449C0913009F450C08091A1028823D5
:1028D00089F18091B6029091B50299838A83BE01F5
:1028E0006F5F7F4F82E091DB882321F18091B602F8
:1028F0009091B50290939B0280939C0210929A0251
:10290000F092A00217C08381928190939B028093E2
:102910009C0210929A0299CF8381928190939D029A
:1029200080939E02F6CF891305C09091A00299234F
:1029300009F4B6CF70D90093A5028093A402109237
:10294000A9021093A702BDCE933089F0943009F00C
:10295000BCCFE5D901C0BED88093A102B6CF89E033
:1029600090E00E949F000797A0F765DAF5CF89E015
:1029700090E00E949F000397C0F7EBCF8913DACF56
:102980008091A1028823B1F280919F028111D2CF60
:102990008091B4029091B30299838A83BE016F5FE4
:1029A0007F4F83E032DB882309F4C4CF8091B402E7
:1029B0009091B30290939D0280939E0210929A028E
:1029C000F0929F02B7CF58DDB5CF1092B8039CDCD0
:1029D0001092A3021092A202ADCF882009F47ECEFD
:1029E0008DEB93E00E94400081110AC08091BC03EE
:1029F000843021F08F5F8093BC0369CE80E0FBCFF1
:102A00008091BA0314D9811101C081E08093BA0387
:102A100065CE9F7E6CCE10D91091BA03811171C022
:102A2000063009F46CC002E0FD81F9832E812A830F
:102A3000812FF4D89C838B8324E6402FBE016F5FE7
:102A40007F4FCE01039670D80E94101C02EC13E059
:102A5000412C480183E1880E911CC4010E94400072
:102A6000882309F43DC0F8019485906894874789CC
:102A70008289411109C096FB442740F996FD04C0A4
:102A800041E0811101C040E08F5F480FB801655FF0
:102A90007F4F842D0E94081C882329F0F801178A93
:102AA00084858F7B8487F894409131015091320165
:102AB000609133017091340178944A565F4F6F4FA3
:102AC0007F4F8091AA029091AB02A091AC02B0918D
:102AD000AD02481B590B6A0B7B0BC4010E942300FB
:102AE000085E1F4F4394F6E04F12B3CF8EEA92E098
:102AF0000E944000882309F444CDB2DA3ECD01E0C3
:102B000093CF89D8823071F483D804E6181301C0BA
:102B100002E3BA82A982812F81D89C838B83202FE4
:102B200043E08CCF79826A82812F78D89C838B8313
:102B30002AEFF6CF991B79E004C0991F961708F089
:102B4000961B881F7A95C9F780950895AA1BBB1B11
:102B500051E107C0AA1FBB1FA617B70710F0A61B9D
:102B6000B70B881F991F5A95A9F780959095BC01BE
:102B7000CD01089597FB072E16F4009406D077FD3B
:102B800008D0E4DF07FC05D03EF4909581959F4F77
:102B90000895709561957F4F0895A1E21A2EAA1BA2
:102BA000BB1BFD010DC0AA1FBB1FEE1FFF1FA217FD
:102BB000B307E407F50720F0A21BB30BE40BF50BFA
:102BC000661F771F881F991F1A9469F76095709583
:102BD000809590959B01AC01BD01CF010895FB014B
:102BE000DC0102C001900D9241505040D8F7089589
:102BF00033331515A28CD6921142DF7B7F063F003E
:062C000001F8C1073FF8D6
:102E00000AB400FCFDCF90938900809388008AB5B6
:102E100081608ABD08959B01F894409131015091E1
:102E2000320160913301709134017894420F531F45
:102E3000611D711DFC01408351836283738308957A
:102E4000CF93C62F7AD5882349F08DE55DD58C2F99
:102E50005BD585E78C1B58D5CF9146C5CF9108959A
:102E6000CF92DF92FF920F931F93CF93DF93062FA2
:102E7000F42E152F62D58823F1F08BED45D5CF2D9B
:102E8000D12F6E0180E2C80ED11C1BEDF9908F2D61
:102E90003BD51F0DCC16DD06C9F7802F35D582ED49
:102EA000801B811B31D5DF91CF911F910F91FF9036
:102EB000DF90CF9019C5DF91CF911F910F91FF90B7
:102EC000DF90CF900895CF93DF93C0E0D1E0DE0193
:102ED000EC912E2F229526952695237011968C9194
:102EE0001197982F9770990F990F922B8695869529
:102EF0008695E695EF71F0E0EC5BF74CE491ED8799
:102F0000E92FF0E0EC5BF74CE491EE87E82FF0E07E
:102F1000EC5BF74CE491EF871296249681E0AC309D
:102F2000B807B1F6DF91CF910895E0E0F1E011929A
:102F300082E0EE37F807D8F38091310190913201A9
:102F4000A0913301B0913401805E9D4EA54FBF4FDB
:102F50008093360190933701A0933801B0933901E3
:102F6000B2CFEDE4F1E0108212AA1092B1011092FA
:102F7000E30110921502109247020895F894EEE3CF
:102F8000F1E01182148216821582128611867894DD
:102F9000089582E00895FF920F931F93CF93DF93DC
:102FA000F62E072F142FC9D4882361F087E3ACD401
:102FB000CF2DD02F112321F08991A6D41150FACF13
:102FC00093D481E0DF91CF911F910F91FF900895ED
:102FD000182FC12FDE63DF738D2F90E0A7D52FEF61
:102FE00080E792E0215080409040E1F700C000006F
:102FF000B8DF80E090E09AD52FEF80E792E0215093
:1030000080409040E1F700C00000ABDFC15021F0EC
:1030100080913F0180FFDECFC6E0C15021F080915A
:103020003F0180FF0CC080913F0180FFD2CFF89418
:1030300080E18093600088E080936000FFCF80E0B3
:1030400090E074D52FEF80E792E0215080409040CF
:10305000E1F700C0000085DF80E090E067D52FEF4A
:1030600080E792E0215080409040E1F700C00000EE
:1030700078DFD3CFCF93DF93CDB7DEB7CB5BD1096A
:103080000FB6F894DEBF0FBECDBFC555DF4F8883A6
:10309000CB5AD04069D581E08093790280E090E0FE
:1030A00045D5C555DF4F2881CB5AD0402223F9F0B2
:1030B000212C312CE0E0F0E08491280E311C319677
:1030C000E11537E1F307C1F760E177E2CE018F55F3
:1030D0009F4FA1DE4EE2C655DF4F4883CA5AD0400B
:1030E0001FE300E088EBF82E96E0B92E43C01DE404
:1030F000812E11E0912EE12CF12C12E3BE2C1E9DAD
:1031000060011F9DD00C1124F601E35BFE4F80810E
:10311000882309F4A9C083818B3009F0A5C082817E
:10312000843009F0A1C0C4019FD3882309F49CC056
:10313000F601E05BFE4F2180328001E00E0D06308B
:1031400019F400E0B5E0BB2E81E090E00B2C01C04B
:10315000880F0A94EAF7182F10951F7360E070E04B
:10316000CE018F559F4F57DEC655DF4F1882CA5A82
:10317000D040F12CCB55DF4F188219821A821B8266
:10318000C55AD040FBDECB54DF4F2882C55BD04010
:10319000CA54DF4F3882C65BD04087EC821983194E
:1031A000C954DF4F8883C75BD04053E0C755DF4F1A
:1031B0005883C95AD040C455DF4F1882CC5AD040EA
:1031C0007AEBE72E8B2D90E0E2E3E89F9001E99FF8
:1031D000300D1124A901435B5E4F3A01FA01339689
:1031E000C155DF4FF983E883CF5AD040A901405B36
:1031F0005E4FCF54DF4F59834883C15BD040FC0101
:10320000EE0FFF1FCD54DF4FF983E883C35BD0403F
:103210004F5F5F4FC854DF4F59834883C85BD0402E
:10322000E050FF4FC355DF4FF983E883CD5AD040BC
:103230002E01F1E84F0E511C9201205E3F4FC65403
:10324000DF4F39832883CA5BD040C555DF4F3881B3
:10325000CB5AD040332319F0112309F406C28091D0
:103260003F0180FF0DC001C23FEFE31AF30A42E3C2
:10327000840E911C56E0E516F10409F03FCF64CFAF
:10328000C555DF4F8881CB5AD040811198C0F301DA
:103290008081882309F493C0C155DF4FE881F9810B
:1032A000CF5AD04080818B3D09F060C0F30182810C
:1032B000833209F05BC0C301D7D2882309F456C01A
:1032C000CF54DF4FE881F981C15BD04081A18F11DC
:1032D00060C0CD54DF4FE881F981C35BD040E0503E
:1032E000FF4F818187709F2D9295990F907E892B3A
:1032F00081838F2D8370A1E0B0E0AC0FBD1FF0E2A1
:103300008F9FA00DB11D112490E2C854DF4FE881BA
:10331000F981C85BD04001900D929A95E1F7833016
:10332000A1F4BE016F5F7F4FC655DF4F8881CA5A37
:10333000D040E1D3C655DF4F2881CA5AD0402F5F15
:10334000C655DF4F2883CA5AD040F39438EBF312A6
:103350002CC0C355DF4FE881F981CD5AD040808120
:10336000806C808383E08183A12C17C0C155DF4F1F
:10337000E881F981CF5AD0408081883E51F4F30131
:103380008281823031F4C3016FD2AA24A3948111C7
:1033900001C0A12CF8EBFF120CC0111108C069EBA1
:1033A0008B2D4EDD68EBF62E07C0A12C02C058EB2A
:1033B000F52E6F2D8B2D44DDF301108201C0A12C61
:1033C000C02ED12CF2E3FC9D4001FD9D900C1124F8
:1033D000F401E35BFE4F8081882309F45CC08381A4
:1033E0008D3509F04DC08281833009F049C0CF018D
:1033F0003BD2882309F444C021E030E0002E01C014
:10340000220F0A94EAF7C455DF4F4881CC5AD040C6
:10341000422BC455DF4F4883CC5AD040F401E05BC7
:10342000FE4FE180C601880F991F57EB5E15D8F457
:10343000E9EBEE120BC020951223FC01E050FF4F88
:103440002081206C20832181276009C0FC01E0508D
:10345000FF4F2081206C20832181287F23602183DE
:103460009924939401C0912CFC01E050FF4F81817D
:1034700087709E2D9295990F907E892B818301C034
:10348000912C22E32C9DF0012D9DF00D1124E35B86
:10349000FE4F108201C0912CEF1408F03DC08E2D1C
:1034A00086958695C655DF4F3881CA5AD040831716
:1034B000B8F440E2E49EC0011124D20184199509B8
:1034C000FC01EA0FFB1FE491ED93C654DF4FE88146
:1034D000F981CA5BD040AE17BF0791F7A2010BC0BC
:1034E0008E2D837041E050E04C0F5D1FF0E28F9F06
:1034F000400D511D11246E2D802FB2DC68E770E065
:10350000CE018B559F4F87DC23E0C755DF4F2883C3
:10351000C95AD0403AEBE32EF894409131015091D2
:10352000320160913301709134017894CB55DF4FB3
:1035300088819981AA81BB81C55AD040841795079B
:10354000A607B70718F09110CCC08BC0C755DF4F46
:103550009881C95AD0409111AEC0F8944091310180
:103560005091320160913301709134017894CF55BC
:10357000DF4F88819981AA81BB81C15AD0408417CD
:103580009507A607B70748F481E090E00C2C01C02E
:10359000880F0A94EAF780951823F601EE0FFF1FB3
:1035A000E050FF4F818187708183112309F459C056
:1035B000212F30E00F5F063009F400E0C901002E32
:1035C00002C0959587950A94E2F780FFF3CF33E028
:1035D000C755DF4F3883C95AD040802FAED18823DA
:1035E000A9F08BE091D1CB54DF4F8881C55BD040EF
:1035F0008BD1CA54DF4F8881C65BD04085D1C95476
:10360000DF4F8881C75BD0407FD16ED1E02FF0E0E3
:10361000EE0FFF1FE050FF4F8181886F8183C455FB
:10362000DF4F4881CC5AD040842F90E0002E02C05A
:10363000959587950A94E2F780FD40C062E370E0BB
:10364000CE018B559F4FE7DBC755DF4F5881C95AD5
:10365000D0405150C755DF4F5883C95AD0408AEBEC
:10366000E82E31DCAA2009F4F0CD1092790286DC34
:1036700003E010E0812F61D1882329F088EE44D146
:103680008AEE42D131D11F5F1630A1F7015089F780
:1036900088EBF81216C080E090E0E0E0F0E02491C2
:1036A000820F911D3196E11527E1F207C1F7281627
:1036B000390639F408C0992089F06FCF68E770E0C7
:1036C000BFCF83E085DCC555DF4FE881CB5AD040C2
:1036D000E11102C082E001C081E084D111117DCFEF
:1036E000C0CFC755DF4FF881C95AD040FF2309F436
:1036F00034CF53CFF89404E00EBF0FEF0DBF789492
:10370000B9DC87EF84BF0FB6F894A895809160006C
:10371000886180936000109260000FBEC0E8C09383
:103720006100D1E0D09361002FEF80E792E021505B
:1037300080409040E1F700C00000F7DB85B7982F8C
:10374000916095BF826085BFC0BF84E880936400AC
:10375000809168008460809368005F9A729A589A9A
:10376000599A269A689A279A699A549A529A5E9A0E
:103770005D9A569A559AD0936E0082E080937000BD
:1037800088D084B18F6384B987B1806C87B978940D
:10379000D6D1F894C093610010926100789482D1E0
:1037A00004B601FE04C08DEF84BF81E0A3DF80E09A
:0E37B00019D180E09FDF76D181E09CDF09DC3B
:1038000031C00000FDCF0000FBCF0000F9CF000069
:10381000C2CB00001AC1000019C10000F7C10000AE
:103820007DC10000C8CF00009FC10000E7C00000BC
:10383000ACC100001AC10000ACCB0000BFCF00003B
:10384000E5C10000FFFEFDFBFAF8F5F2EEEAE6E066
:10385000DAD3CCC3BAB0A5998C7E6F5F4E3B2813E8
:103860000D09030111244DDFFC012281339690E004
:10387000215018F08191980FFBCF81E0923D09F023
:1038800080E008952E9870982F9871985C985A98B7
:1038900008958FEF87BD88BD16BC95B5906895BD1E
:1038A00095B5906495BD93EA94BD93E29093B00072
:1038B00090E89093B3008093B4001092B200E1EBD3
:1038C000F0E080818064808383B5806883BD83B5A8
:1038D000826083BD83B5816083BD82E085BD8083C6
:1038E00083B58F7783BD089580EB97E189DAEDE4A6
:1038F000F1E0118213AA1092B2011092E401109229
:1039000016021092480208950F931F93CF93DF93EE
:10391000082FC8E0D0E011E0812F802319F08CE05F
:1039200096E002C08EED9EE06BDA110F2197A1F7B1
:10393000DF91CF911F910F910895F89442E3849FF6
:10394000F0011124E35BFE4F95A5911103C091E0B6
:10395000918301C090E078949923C1F121E030E097
:10396000A90102C0440F551F8A95E2F7CA012091B0
:1039700081002111FCCF98E190938100109280008A
:10398000109285001092840021E030E0309389008D
:103990002093880093E0909380002CE036E03093F1
:1039A000890020938800B19A90916F009260909363
:1039B0006F0080938A008AB581608ABD89E1809317
:1039C000810080EB97E11CDA81E0089580E00895A2
:1039D00085EC80937A0080917A0086FDFCCF8091FF
:1039E00079000895C82FF894A0DAC093280104E064
:1039F0000EBF0FEF0DBF78940C9400001F920F9232
:103A00000FB60F9211248F939F9380918A0087B9EC
:103A100083B995E39A95F1F7000083B986B995E0EB
:103A20009A95F1F7000017B886B90AB400FC03C0F4
:103A30001092810003C08AB58E7F8ABD9F918F91BD
:103A40000F900FBE0F901F90189518951F920F9210
:103A50000FB60F9211248F9386B5809327018F9113
:103A60000F900FBE0F901F90189590E8899FF0015E
:103A70001124F89483E080935700E895789407B672
:103A800000FCFDCFF89485E080935700E89578948A
:103A900007B600FCFDCFF89481E180935700E895CC
:103AA000789408950F931F93CF93DF9310E020E055
:103AB00037E101E080E090E0E901C80FD91F8038CC
:103AC000910569F0FE0145915491F894FC010A01B9
:103AD00000935700E895112478940296EDCF812F3A
:103AE000C4DF1F5F1E3211F09E01E4CFDF91CF9142
:103AF0001F910F910895E0E0F0E091E0F894DB0170
:103B00002D913D91BD01090190935700E895112435
:103B100078943296E038F10589F7A7CF81E0809359
:103B20000C0180910C018111FCCFCDC9E0E0F1E0E6
:103B30008193919321E0EC30F207D1F7EFCF8EE63D
:103B400080937C0085EC80937A008DE58A95F1F76F
:103B500000003EDF3DDF3CDF3BDF10927A008A371A
:103B600010F082E035CA0895F894E1E3F1E0808135
:103B70009181A281B381805E9D4EA54FBF4F858309
:103B80009683A783B08778940895EEDFF89480E851
:103B90008093610081E080936100789415BC72DEAF
:103BA0001092B10014BC1092B0006B982FEF80E718
:103BB00092E0215080409040E1F700C000004F9B10
:103BC000FECF2FEF80E792E0215080409040E1F758
:103BD00000C0000080916D00806880936D0085E0DA
:103BE00083BF889580916D008F7780936D00F894E6
:103BF00050DEC4D97894A3DFF89480E88093610004
:103C00001092610078941092410108951F920F92D2
:103C10000FB60F921124EF92FF920F931F932F93E1
:103C20003F934F935F936F937F938F939F93AF9344
:103C3000BF93CF93DF93EF93FF9316B1109586B5A3
:103C400078948C5E96B59817E8F316B917B985E0A5
:103C50008A95F1F7000017B816B98091B20087FF76
:103C6000B3C0C091350180E28C0F8D3708F4A9C034
:103C70008091310190913201A0913301B0913401D2
:103C80000196A11DB11D8093310190933201A09343
:103C90003301B09334014091360150913701609166
:103CA000380170913901481759076A077B0708F4F2
:103CB0006CDF80913F0169B1562F5095551F5527F4
:103CC000551F90913E014091420120914301309156
:103CD0004401591349C04111415067FD2FC02115BE
:103CE000310529F02150310911F4109245016091FC
:103CF0004701709148016F5F7F4F70934801609357
:103D00004701613797E1790730F0806810924801E8
:103D10001092470149C0693B9BE0790710F080642D
:103D200043C0613B744008F43FC09091460191113B
:103D30003BC0826091E09093460136C02115310569
:103D400099F12150310981F590914501913011F49B
:103D5000886007C0923011F4806103C08062909344
:103D600040011092450120C041111DC090914501B4
:103D700067FD0BC081609F3F09F09F5F1092480173
:103D8000109247012AE431E007C084602115310513
:103D900009F490E0109246019093450150933E0142
:103DA00044E191E002C044E190E080933F01409300
:103DB000420130934401209343019111D5DE83EAFF
:103DC0008C0F8093350173C080912601909125015D
:103DD000C92FD0E0823009F441C028F4882351F083
:103DE0008130C9F062C0833009F445C0843009F4E1
:103DF00051C05BC047DDCC0FDD1FCC0FDD1FC050B5
:103E0000DF4F8F858F3F29F083E28093B000539A74
:103E10006B9A81E04AC06B98923081F030F499231C
:103E200059F0913081F4709A0EC0943059F040F0FE
:103E3000953049F45A9A07C02E9A05C02F9A03C0AC
:103E4000719A01C05C9ACC0FDD1FCC0FDD1FC050F2
:103E5000DF4F8F858093B40082E027C08FEF80937F
:103E6000B400CC0FDD1FCC0FDD1FC050DF4F8D85A0
:103E700087BD83E01AC053988093B0008FEF87BD51
:103E8000CC0FDD1FCC0FDD1FC050DF4F8E8588BDEE
:103E900084E00BC08FEF88BD9F5F963019F41092BD
:103EA0000C0190E09093250180E080932601C7E407
:103EB000D2E000E2F12CEE24E3949CA5802F812334
:103EC00009F43EC08DA59430D0F48823B1F192302E
:103ED00010F490E801C090E0282F2695922B80FFE7
:103EE0002BC08A81883248F48A81FE01E80FF11DD7
:103EF00093838A818F5F8A8338C01A8214C0973077
:103F0000E0F4803891F49A819923B9F0E8828B81AA
:103F10008B3049F48A81843031F4CE01A5DC8823CA
:103F200011F0FF24F39480E008C09881911105C03E
:103F300099819923C9F001C0892F8DA71CA606C0BD
:103F4000983018F49F5F9CA701C01DA6E2970695C4
:103F500081E0CB31D80709F0B0CFFF2041F080914C
:103F60007902811104C025DC1A8280E8E6CFFF9136
:103F7000EF91DF91CF91BF91AF919F918F917F9101
:103F80006F915F914F913F912F911F910F91FF90F2
:0C3F9000EF900F900FBE0F901F9018953F
:00000001FF
