:020000040000FA
:1017000001C0000014E0A1E6B4E0E4E5F6E102C0A7
:1017100005900D92A638B107D9F724E0AEE7B2E004
:1017200001C01D92A136B207E1F70DC60F931F93BA
:101730000091590410915A0420915B0430915C048B
:1017400080915D0490915E04A0915F04B09160046B
:10175000081719072A073B0748F4BC01CD01601B95
:10176000710B820B930B1F910F91089560E070E055
:10177000CB01F9CFEDE4F1E0108212AA1092B10191
:101780001092E301109215021092470208950F93F0
:101790001F930091590410915A0420915B043091D9
:1017A0005C04400F511F621F731FFC014083518373
:1017B000628373831F910F91089540EC57E269E0B3
:1017C00070E084E594E0E3CF0F931F93FC0181E088
:1017D00000811181228133814091590450915A0432
:1017E00060915B0470915C040417150726073707A6
:1017F00008F080E01F910F910895F89480913101D5
:1018000090913201A0913301B0913401789480938A
:10181000590490935A04A0935B04B0935C04089518
:10182000CF93DF93482F392FC62F86958F71869FD0
:10183000C0011124EFEFF0E0BF010E94D80A262F6B
:101840002F71220F4295469546954370832F8770DE
:10185000880F880F842B8C9FC0011124BF010E9428
:10186000D80AD62FD295DD0FDD0FD07C2160AB01D9
:1018700056954795569547953695369536953C9F9E
:10188000C0011124BF010E94D80A962F990F990F09
:10189000990F4770822F8D2B942BDF91CF91089554
:1018A000E62FF0E0EE0FFF1FE050FF4F91838083A3
:1018B00008950F931F93CF938C01C0E06C2FC80144
:1018C000EFDFCF5FC630D1F7CF911F910F91089511
:1018D0008CE0E4E8F2E0A0E0B1E001900D928A959E
:1018E000E1F708958CE0E0E0F1E0A4E8B2E00190D7
:1018F0000D928A95E1F7089528E1829FC001112495
:1019000085539C4F61CF80919002882359F01092AB
:10191000900281E090914101911103C081E0809398
:101920004101089580E0F6CF90915804282F20952A
:10193000292320935804982381E009F480E0089536
:101940009C01082E000C990B861B910967FD93954D
:1019500097FF03C0919581959109432F032E000CA9
:10196000550B471B510977FD539557FF03C0519500
:1019700041955109230F2195022E000C330B670F5F
:101980006195261B310967FD339537FF03C03195FB
:1019900021953109841710F0821720F4842F421703
:1019A00008F4822F0895E6EAF3E0BC01808191817A
:1019B000C7CF90E0861B910967FD9395069666E078
:1019C00070E00C94D80A88E0AFDF882319F09BDF21
:1019D00091E0892708951F93CF93DF93EC018DE564
:1019E00094E0F2DE182F882331F0AE0170E060E061
:1019F0008DE594E0CCDE812FDF91CF911F9108958A
:101A00000F931F93CF93DF938C01D62FC42F8FEFAB
:101A100090E0861B91099C01429FC001439F900D5D
:101A20001124D9DF882331F08091650491E0892762
:101A3000809365047BDE2C2F30E050E040E00E9474
:101A4000EB0A80916504622F6095811102C06D2FB1
:101A5000620FF80180819181E3DEDF91CF911F91C8
:101A60000F9127CFEDEAF3E01082118212821382E8
:101A7000148215820895EDEAF3E0808122812F70AF
:101A8000220F220F8370948191509295990F990F94
:101A9000907C822B892B0895EDEAF3E09281938369
:101AA0008283658308958091AD030895EDEAF3E0A4
:101AB00090819183808365830895E82FF0E0EE0F95
:101AC000FF1FE558FB4F8081918108958F5F85301E
:101AD00008F080E00895CF93C091B1038C2FF6DF1A
:101AE000E82FF0E0EC54FC4F9081292F2F7721F064
:101AF000882311F097FD02C08C13F1CF8093B103BE
:101B0000CF9108950F931F93CF93C82F842F8901EE
:101B1000C13039F0C43051F460919E024ADFF801BF
:101B200080838C2FCF911F910F910895C2E0F9CF40
:101B30009F92AF92BF92CF92DF92EF92FF920F935C
:101B40001F93CF93DF936C01A42EB090A003F12CD0
:101B5000E12CD62FD295D07FEB14D8F58701000F5A
:101B6000111FF801E156FD4FC0819C2E990C990C74
:101B7000959495948C2F8295869586958370C181D6
:101B8000CF70CC0FCC0FC82BCC0FCC0FC595C59503
:101B9000B601892D9C2FD4DE81110BC0F801E156CE
:101BA000FD4F81818F708D2B81838FEFE81AF80AAA
:101BB000D3CFAA20D1F3F801E056FD4F8081829562
:101BC0008F7099F3692D7C2FC601BADE813069F7D9
:101BD000E5CFDF91CF911F910F91FF90EF90DF90B4
:101BE000CF90BF90AF909F9008959091A003E92F60
:101BF000F0E0EE0FFF1FE156FD4F262F2295220F3A
:101C0000220F207C8F73822B808366956695429588
:101C1000407F6F70642B61839F5F9093A003089552
:101C2000EFEBF3E0108211821482128286E083834C
:101C3000089548EC50E060E070E089EA93E0A7CDB9
:101C4000CF93211106C0FA018230F1F020F48130E7
:101C500041F0CF910895833049F18530D1F7CF918C
:101C6000E8CFC08161E08C2F837020DF8C2F8695B8
:101C7000869561E08F7010DFC295C695C695C370DA
:101C8000CF5FC093B103E5CF808191818093BA0388
:101C90009093BB031092A80386DE8111DACF81E016
:101CA0008093BF0360E082E0CF91F6CE8081918186
:101CB0008093BC039093BD031092A80374DE81113E
:101CC000C8CF81E08093C00360E084E0EDCF8091D5
:101CD000C1030895FCDFE6EAF3E0482F61818081CB
:101CE00084CF40EA5FE060E070E081EA93E04FDD9E
:101CF000F1CF1F93CF93DF93EC01162F40EA5FE003
:101D000060E070E081EA93E042DD8091A003811100
:101D10001CC0E12FF0E0E759FB4F6981808149DE6B
:101D200080939E02682F812F44DE880FE82FF0E019
:101D3000E159FB4F81819B81890F9A812081920F0C
:101D40009093A6038093A703C5DF4B815A816091CE
:101D5000A00330E020E0261730F5F901EE0FFF1F59
:101D6000E156FD4F8081982F990F990F9595959584
:101D7000591310C0982F92959695969593708181DE
:101D80008F70880F880F892B880F880F8595859510
:101D9000481719F02F5F3F4FDECF81E090E0DF91D1
:101DA000CF911F9186CD93DF88DE83DD4C816B81DF
:101DB0008A81DF91CF911F9118CF8091C003089540
:101DC0008091BF03089575DD0C94101C9C01663052
:101DD00018F558E1549FF0011124DF01AC53BC4FBA
:101DE00052968C915297811117C0942F462FB901AA
:101DF000E053FC4F208131E0320F3770287F232BD6
:101E0000208352964C93959FC001112450E08F522D
:101E10009C4F97D781E0089580E00895EF92FF925C
:101E20000F931F93CF93DF9300D000D01F92CDB7B5
:101E3000DEB7E4ECF3E090E0891719F02289211174
:101E400066C09F5F78969630B9F7FB019081492F65
:101E500042954F7020917E0230E0F901EA56FD4F25
:101E600090832F5F3F4F2370332720937E02907F14
:101E7000903F11F490E002C091E0940F7B01182F85
:101E800090937F02863079F0E0919A02F0919B0264
:101E9000309749F0DB018C9120E0AB014F5F5F4F41
:101EA000612F8F70099500E0802F26DD81111FC002
:101EB0001017E9F085E0F701DE01119601900D920F
:101EC0008A95E1F7E0919102F091920284E03097D7
:101ED00041F089819E012E5F3F4F402F612F8F700F
:101EE000099561E0680F402FCE0101966FDF0F5F0B
:101EF0000630D1F681E00F900F900F900F900F9069
:101F0000DF91CF911F910F91FF90EF90089580E0A6
:101F1000F2CFBC0190917F02892F8295807FFB01D7
:101F200090819F70982B908386E078CF1F93CF93FA
:101F3000DF9300D000D01F92CDB7DEB78981807FBC
:101F400085608983CE010196E4DF182F811171DE4F
:101F5000812F0F900F900F900F900F90DF91CF91E6
:101F60001F910895FC019091B4039F7721F0809117
:101F7000B303823010F41082D9CF81E080830895BA
:101F8000CF92DF92EF92FF921F93CF93DF930E9445
:101F9000141CA8DCC8EC1C2FD0E0612F81E098EF66
:101FA0003FDC11DF165042E063E674E08D2F0E94A3
:101FB000081CDF5FD63089F7C452C43161F781E075
:101FC00090E001DFF894C0903101D0903201E090B0
:101FD0003301F0903401789410923F01CBDB81E023
:101FE0008093410180913F0180FF2EC0F894C09200
:101FF0003101D0923201E0923301F09234010E941B
:10200000141C789481E080939002D7DBB3DBC0E0AE
:102010001C2FD0E01A5F612F8FEF9FEF01DCD3DE22
:1020200042E061E674E08D2F0E94081CDF5FD6302D
:1020300089F7CC5DC43B61F7DF91CF911F91FF9091
:10204000EF90DF90CF9044CC80914101882371F2D2
:10205000EDE4F1E080E09081992341F094819333A5
:1020600021F49581933309F481E01082F29692E095
:10207000E937F90781F7882309F4B4CFB7CF80E8AF
:1020800092E0A2DB882341F140ED57E060E070E090
:1020900080E892E07CDB8091D00380648093D00361
:1020A0008091E80380648093E80380910004806459
:1020B00080930004809118048064809318048091B8
:1020C000300480648093300480914804806480935D
:1020D000480473DB0C94141C0895CF92DF92EF92A6
:1020E000FF920F931F93CF93DF930DE411E0C4ECA5
:1020F000D3E0DD24D394F80180818823E9F0838143
:102100008733C1F448EC50E060E070E0CE01079600
:102110003EDB40E050E0BA01CE01439638DBF801E7
:10212000E280CC24CA94CE0CF1E0CF1215C0F801A5
:1021300084818883F801108268960E5C1F4FF4E05A
:10214000C435DF07C1F6DF91CF911F910F91FF904A
:10215000EF90DF90CF900895F801F580F7FE31C041
:1021600084818883F6FC8BDF9F2D969596959695B6
:1021700097708C85282F2770921301C01A8AF2E07D
:10218000FC15C0F69F2D9770F92E982F9695969571
:1021900096959770F91699F09E81911110C0FF0CD9
:1021A000FF0CFF0C877CF82AFC864DEF4E0D4E830A
:1021B00050E0B8016A5F7F4FCE010196C2D5DF8A39
:1021C000B9CF8481853109F0B5CF8581853109F09A
:1021D000B1CFD6DEAFCF9F92AF92BF92CF92DF92B8
:1021E000EF92FF920F931F93CF93DF93E3EBF3E014
:1021F00087E0DF011D928A95E9F7B12C9090A0034A
:10220000B91408F094C00B2D10E0000F111FF80155
:10221000E156FD4F8181807FA82EF801E056FD4FE9
:10222000C081C295CF70D0E0CC54DC4F88818F77CD
:10223000AA2039F0811105C09091B3039F5F90935C
:10224000B3038F5F8F7798819078892B8883F12CE7
:10225000E12CF801E156FD4F6F01E91408F03DC093
:10226000F701EE0FFF1FDF01A056BD4F8C91829545
:102270008F7009F058C0E156FD4F7081672F660FCF
:10228000660F65956595872F8295869586958370EF
:1022900071817F70770F770F782B770F770F759598
:1022A0007595D6019C91892F880F880F292F22952B
:1022B00026952695237011969C919F70990F990FE2
:1022C000922B990F990F859585959595959538DB66
:1022D000833048F58881806888839091B903911193
:1022E00020C0A1101CC0F801E156FD4F9081892F3C
:1022F000880F880F292F2295269526952370918186
:102300009F70990F990F922B990F990F859585952D
:102310009595959548DB91E0833008F090E0909397
:10232000B903B3946BCFBFEFEB1AFB0A96CFDF91E3
:10233000CF911F910F91FF90EF90DF90CF90BF90C2
:10234000AF909F900895CF93DF9300D000D01F925D
:10235000CDB7DEB781E0809341014FDA2EDA8EEB04
:102360009AEB909387048093860480EA92E090939E
:102370009B0280939A0282E092E090939202809373
:1023800091028091660490916704A0916804809303
:10239000930290939402A093950242DC6FE1C62EC3
:1023A000D12CAA24AA94B12C35E0332EEE24E39448
:1023B00046E0742E58E1452E809186049091870462
:1023C0008E3B9A4B19F084E00E941E1C80913F01C5
:1023D00086FF2DC010E0812F8FDA882341F11F5F27
:1023E0001630C9F77FDA10E00FC081E090E061DAC3
:1023F00001E0010F612F81E098EF52DA063009F415
:1024000000E00E94101C102F80913E01882321F0D3
:1024100080913F0187FFE9CF5BDA80913F0187FD23
:1024200005C081E090E0CFDC0E94121CA9DD809104
:102430003F0187FDA5DDE1D980913F0180FD1FDED1
:102440004CDEF89480913E0190913F0180915804B8
:10245000892B8093580410923F0180914001789419
:102460001091C203163009F448C0812F45DA882341
:1024700089F010929D0210929C02419EF00111245D
:10248000EC53FC4F128A7092C2031091C2031630B3
:1024900009F447C00091A003002329F080919C0219
:1024A000801709F43EC0FFDA823009F03AC080910B
:1024B000AF03811136C080919D02882309F4C1C009
:1024C000813009F4CEC0EFDA182F01DC8295880F35
:1024D000807E8093CF038093E7038093FF038093F4
:1024E000170480932F048093470489EA93E06CD902
:1024F0008111D4C28FEF9FEFB2C304EC13E0912C93
:10250000D8018C90892DF8D9811105C084FE03C0B3
:102510009092C203BACF9394085E1F4FB6E09B120D
:10252000EFCF94EC892E93E0992E8401612CF80171
:1025300086818823C1F0C8010196E0919402F09150
:102540009502309709F4A4C0D80111964C914F70B0
:102550002091930230E04217130609F099C0662DCE
:102560000995F80116826394085E1F4FF6E06F121A
:10257000DECF82E0D9D9882309F49CC0D7DC60E0A3
:1025800080E094DA0E94101C04EC13E0612C4801F6
:1025900023E1820E911CC40117D9882309F443C09A
:1025A000D8011C969C911C9790681C969C931C9734
:1025B00057964C91579752968C91411109C096FBB2
:1025C000442740F996FD04C041E0811101C040E07C
:1025D0008F5F480FB801655F7F4F862D0E94081CF2
:1025E000882329F0F801178A84858F7B8487F894E3
:1025F0004091310150913201609133017091340169
:1026000078944A565F4F6F4F7F4F80915904909155
:102610005A04A0915B04B0915C04481B590B6A0BEF
:102620007B0BC401B4D8085E1F4F6394F6E06F12B1
:10263000AECF84E594E0C8D8882309F4BDCEA0DCF1
:10264000B3CE1B8279820A8316DA8B83412F63E033
:10265000CE010196BBDB882309F435CFE0929D02C1
:1026600032CF90909C020919033008F002E0892DC6
:1026700090E0880F991F412F602F660F81569D4F64
:10268000A5DB882309F41FCF090D00939C021BCF03
:10269000F8012181E6E9F2E03191321709F4F2C242
:1026A00032E0EA39F307C1F7BC01862DB7DB8111AF
:1026B00058CF59CF9091AD038091AE03981339C094
:1026C0009091AF038091B003981333C0ECD9182FC9
:1026D0000091AF036090AD035090AE03651005C04C
:1026E0008091B003081709F4DDC240E050E0BA0160
:1026F0008DE594E04CD810926504113009F436C091
:1027000040F1123009F4B7C0133049F5651409F4EB
:10271000BCC181E090E030E040E0FC01EC54FC4FB3
:1027200020812F77421708F4A7C12413A7C130E0F6
:10273000A5C18091B2038111C9CF9DD99981907FA4
:10274000916099838A83CE010196E3DB8111BECF2C
:10275000BACE651411F086D963DA35D9182F60E046
:10276000812FA4D960E0802F97D9ADCE651008C025
:10277000013039F128F0023009F468C011E0EFCFE0
:102780001092A00310929F0310929D0210929C023F
:1027900022DD80E1C9D8882359F0E092BF0310926E
:1027A0009E021092A6031092A7039BDA01E0E6CFE7
:1027B0000AD9882321F08BDA89D98093C10300E0FC
:1027C000DDCFE0919F038091A003E81788F5F0E04A
:1027D000EE0FFF1FDF01A056BD4F2C9122952F70E9
:1027E000E156FD4F8081382F330F330F35953595E6
:1027F000982F929596959695937081818F70880FFA
:10280000880F892B880F880F859585959981907FF2
:10281000946099837A823B838C832D83CE010196C9
:1028200078DB882329F080919F038F5F80939F033B
:1028300081EA93E00E94640011E0882329F0C0DA65
:1028400011E002E081118BCF01E089CFC4DCB8DA5E
:10285000882309F493CFCE01019684DB882309F401
:102860008DCF898111E0882311F035D912E01092C3
:10287000BF0300E074CF1092C303651471F0A3D8B6
:10288000182F1092BF031092C00321DA9091B10368
:10289000891709F444C000E009C0023009F46FC090
:1028A00038F4002361F3013009F455C012E057CF2A
:1028B000043009F4AFC008F497C00530B9F780912F
:1028C000A80381111BC06091BC037091BD030091EE
:1028D000BA031091BB03C80133D8823020F040E026
:1028E00060E0C80125D941E06091B1038091BC034B
:1028F0009091BD031DD96FDCE092A8035EDA8823B6
:1029000009F4B8C0CE0101962DDB882309F4B2C0CA
:10291000898105E0882309F4BFC0DDD8BCCF809150
:10292000B903882309F4B7CF111105C08091A5031D
:10293000882309F4B0CF1092A5038091A70390914A
:10294000A6039093BA038093BB031092A803E0926E
:10295000BF0301E0ABCF34DA8823D9F32091A6037B
:102960009091A7038981807F826089832A839B83DA
:10297000CE010196CEDA882361F302E097CF23D807
:10298000182F1092C003A3D9811109C08091BA03F6
:102990009091BB0308D8833010F4E092C303112355
:1029A00061F395D99091B103891304C08091B90363
:1029B000811113C08091C3038823F9F28091A7038A
:1029C0009091A6039093BC038093BD031092A8033B
:1029D000E092C00312E003E0C2CEF2D981115BCFD6
:1029E000E092A50312E045CFE8D9811102C003E0CF
:1029F0005DCF2091A6039091A7038981807F83609A
:102A000089832A839B83CE01019683DA882379F315
:102A100004E04CCFD5D9882369F07091BD03609153
:102A2000BC038091BA039091BB030E9420018130C6
:102A300009F0F6D8C2D9882359F38091B103809365
:102A4000C10310E0812F0E94FC0081110DC0D40150
:102A50000C91802F807E41F03AD90295069507703F
:102A600090E008171906A1F61F5FB8E18B0E911CC4
:102A7000163041F705E01ACF382F422F01968530E6
:102A8000910509F04ACE3093C1030E946301882367
:102A900019F04CDA10E063CE13E061CE1130A1F0F2
:102AA00040F01230E1F0133009F4E5C00E94030158
:102AB00069CD80E002D89A8389834AE06FE8CE012D
:102AC00001960E948001F2CF8091AF03813071F3B3
:102AD000FED80E94DD016FE70E949000C0C0F7D8C9
:102AE000082F0E94DD019A8389838090B1031091A1
:102AF000AF030E94D90064D9882311F0133028F065
:102B00005CD98823B9F01430A9F48BE291E00E94DB
:102B10006B010E94160022E330E040E050E0DBD081
:102B2000632D621B663008F0C1CF8FEF9FEF0E94CC
:102B3000D000BCCF081110C0143030F48091B9031C
:102B400044E060E28111BBCF8091C3038111AECF1D
:102B50006FE789819A81C0CF0023B1F31430A1F7C8
:102B60008091BC039091BD030E945301082F8130D6
:102B700059F719819A8085EC93E00E946B018823B4
:102B800059F08091BE03882329F01092BE038092F1
:102B9000C1038CCF0093BE030E941600693C7105EF
:102BA0008105910508F45EC0012F06950F711295FD
:102BB000169516951370292D2770220F220F122BB0
:102BC000969496949694685C71098109910923E022
:102BD00030E040E050E07FD0209530E06894F0F89D
:102BE000A601401B5109429FC001439F900D529F77
:102BF000900D1124B5015CD0060F0F71000FEF2D61
:102C0000E17CFE2EF02AA601411B5109429FC00122
:102C1000439F900D529F900D1124B50149D0160F7E
:102C2000812F8295880F880F807CFF2DFF73FF2EE8
:102C3000F82A16951695A60149195109429FC00117
:102C4000439F900D529F900D1124B50131D0960EE7
:102C5000990C990C990C912F977099298F2D0E949E
:102C6000D90024CF653671058105910508F042CC65
:102C700081E090E0F4CF2BD80E94DD019A83898314
:102C800042E01CCFE0919A02F0919B02309709F448
:102C900068CCDC018C9121E050E040E0662D8F7023
:102CA00009955FCC113009F461CD08F02ACD55CDDE
:102CB00097FB072E16F4009406D077FD08D02DD090
:102CC00007FC05D03EF4909581959F4F089570952F
:102CD00061957F4F0895A1E21A2EAA1BBB1BFD012F
:102CE0000DC0AA1FBB1FEE1FFF1FA217B307E407EB
:102CF000F50720F0A21BB30BE40BF50B661F771F43
:102D0000881F991F1A9469F7609570958095909522
:102D10009B01AC01BD01CF010895AA1BBB1B51E172
:102D200007C0AA1FBB1FA617B70710F0A61BB70B3B
:102D3000881F991F5A95A9F780959095BC01CD01E0
:102D40000895FB01DC0102C001900D9241505040FA
:102D5000D8F70895333315150104F902030405006B
:102D600001020001010001FF00FFFF00FF017F06DB
:092D70003F0001F8C1073FF80023
:102E00000AB400FCFDCF90938900809388008AB5B6
:102E100081608ABD08959B01F894409131015091E1
:102E2000320160913301709134017894420F531F45
:102E3000611D711DFC01408351836283738308957A
:102E4000CF93C62F7AD5882349F08DE55DD58C2F99
:102E50005BD585E78C1B58D5CF9146C5CF9108959A
:102E6000CF92DF92FF920F931F93CF93DF93062FA2
:102E7000F42E152F62D58823F1F08BED45D5CF2D9B
:102E8000D12F6E0180E2C80ED11C1BEDF9908F2D61
:102E90003BD51F0DCC16DD06C9F7802F35D582ED49
:102EA000801B811B31D5DF91CF911F910F91FF9036
:102EB000DF90CF9019C5DF91CF911F910F91FF90B7
:102EC000DF90CF900895CF93DF93C0E0D1E0DE0193
:102ED000EC912E2F229526952695237011968C9194
:102EE0001197982F9770990F990F922B8695869529
:102EF0008695E695EF71F0E0EC5BF74CE491ED8799
:102F0000E92FF0E0EC5BF74CE491EE87E82FF0E07E
:102F1000EC5BF74CE491EF871296249681E0AC309D
:102F2000B807B1F6DF91CF910895E0E0F1E011929A
:102F300082E0EE37F807D8F38091310190913201A9
:102F4000A0913301B0913401805E9D4EA54FBF4FDB
:102F50008093360190933701A0933801B0933901E3
:102F6000B2CFEDE4F1E0108212AA1092B1011092FA
:102F7000E30110921502109247020895F894EEE3CF
:102F8000F1E01182148216821582128611867894DD
:102F9000089582E00895FF920F931F93CF93DF93DC
:102FA000F62E072F142FC9D4882361F087E3ACD401
:102FB000CF2DD02F112321F08991A6D41150FACF13
:102FC00093D481E0DF91CF911F910F91FF900895ED
:102FD000182FC12FDE63DF738D2F90E0A7D52FEF61
:102FE00080E792E0215080409040E1F700C000006F
:102FF000B8DF80E090E09AD52FEF80E792E0215093
:1030000080409040E1F700C00000ABDFC15021F0EC
:1030100080913F0180FFDECFC6E0C15021F080915A
:103020003F0180FF0CC080913F0180FFD2CFF89418
:1030300080E18093600088E080936000FFCF80E0B3
:1030400090E074D52FEF80E792E0215080409040CF
:10305000E1F700C0000085DF80E090E067D52FEF4A
:1030600080E792E0215080409040E1F700C00000EE
:1030700078DFD3CFCF93DF93CDB7DEB7CB5BD1096A
:103080000FB6F894DEBF0FBECDBFC555DF4F8883A6
:10309000CB5AD04069D581E08093790280E090E0FE
:1030A00045D5C555DF4F2881CB5AD0402223F9F0B2
:1030B000212C312CE0E0F0E08491280E311C319677
:1030C000E11537E1F307C1F760E177E2CE018F55F3
:1030D0009F4FA1DE4EE2C655DF4F4883CA5AD0400B
:1030E0001FE300E088EBF82E96E0B92E43C01DE404
:1030F000812E11E0912EE12CF12C12E3BE2C1E9DAD
:1031000060011F9DD00C1124F601E35BFE4F80810E
:10311000882309F4A9C083818B3009F0A5C082817E
:10312000843009F0A1C0C4019FD3882309F49CC056
:10313000F601E05BFE4F2180328001E00E0D06308B
:1031400019F400E0B5E0BB2E81E090E00B2C01C04B
:10315000880F0A94EAF7182F10951F7360E070E04B
:10316000CE018F559F4F57DEC655DF4F1882CA5A82
:10317000D040F12CCB55DF4F188219821A821B8266
:10318000C55AD040FBDECB54DF4F2882C55BD04010
:10319000CA54DF4F3882C65BD04087EC821983194E
:1031A000C954DF4F8883C75BD04053E0C755DF4F1A
:1031B0005883C95AD040C455DF4F1882CC5AD040EA
:1031C0007AEBE72E8B2D90E0E2E3E89F9001E99FF8
:1031D000300D1124A901435B5E4F3A01FA01339689
:1031E000C155DF4FF983E883CF5AD040A901405B36
:1031F0005E4FCF54DF4F59834883C15BD040FC0101
:10320000EE0FFF1FCD54DF4FF983E883C35BD0403F
:103210004F5F5F4FC854DF4F59834883C85BD0402E
:10322000E050FF4FC355DF4FF983E883CD5AD040BC
:103230002E01F1E84F0E511C9201205E3F4FC65403
:10324000DF4F39832883CA5BD040C555DF4F3881B3
:10325000CB5AD040332319F0112309F406C28091D0
:103260003F0180FF0DC001C23FEFE31AF30A42E3C2
:10327000840E911C56E0E516F10409F03FCF64CFAF
:10328000C555DF4F8881CB5AD040811198C0F301DA
:103290008081882309F493C0C155DF4FE881F9810B
:1032A000CF5AD04080818B3D09F060C0F30182810C
:1032B000833209F05BC0C301D7D2882309F456C01A
:1032C000CF54DF4FE881F981C15BD04081A18F11DC
:1032D00060C0CD54DF4FE881F981C35BD040E0503E
:1032E000FF4F818187709F2D9295990F907E892B3A
:1032F00081838F2D8370A1E0B0E0AC0FBD1FF0E2A1
:103300008F9FA00DB11D112490E2C854DF4FE881BA
:10331000F981C85BD04001900D929A95E1F7833016
:10332000A1F4BE016F5F7F4FC655DF4F8881CA5A37
:10333000D040E1D3C655DF4F2881CA5AD0402F5F15
:10334000C655DF4F2883CA5AD040F39438EBF312A6
:103350002CC0C355DF4FE881F981CD5AD040808120
:10336000806C808383E08183A12C17C0C155DF4F1F
:10337000E881F981CF5AD0408081883E51F4F30131
:103380008281823031F4C3016FD2AA24A3948111C7
:1033900001C0A12CF8EBFF120CC0111108C069EBA1
:1033A0008B2D4EDD68EBF62E07C0A12C02C058EB2A
:1033B000F52E6F2D8B2D44DDF301108201C0A12C61
:1033C000C02ED12CF2E3FC9D4001FD9D900C1124F8
:1033D000F401E35BFE4F8081882309F45CC08381A4
:1033E0008D3509F04DC08281833009F049C0CF018D
:1033F0003BD2882309F444C021E030E0002E01C014
:10340000220F0A94EAF7C455DF4F4881CC5AD040C6
:10341000422BC455DF4F4883CC5AD040F401E05BC7
:10342000FE4FE180C601880F991F57EB5E15D8F457
:10343000E9EBEE120BC020951223FC01E050FF4F88
:103440002081206C20832181276009C0FC01E0508D
:10345000FF4F2081206C20832181287F23602183DE
:103460009924939401C0912CFC01E050FF4F81817D
:1034700087709E2D9295990F907E892B818301C034
:10348000912C22E32C9DF0012D9DF00D1124E35B86
:10349000FE4F108201C0912CEF1408F03DC08E2D1C
:1034A00086958695C655DF4F3881CA5AD040831716
:1034B000B8F440E2E49EC0011124D20184199509B8
:1034C000FC01EA0FFB1FE491ED93C654DF4FE88146
:1034D000F981CA5BD040AE17BF0791F7A2010BC0BC
:1034E0008E2D837041E050E04C0F5D1FF0E28F9F06
:1034F000400D511D11246E2D802FB2DC68E770E065
:10350000CE018B559F4F87DC23E0C755DF4F2883C3
:10351000C95AD0403AEBE32EF894409131015091D2
:10352000320160913301709134017894CB55DF4FB3
:1035300088819981AA81BB81C55AD040841795079B
:10354000A607B70718F09110CCC08BC0C755DF4F46
:103550009881C95AD0409111AEC0F8944091310180
:103560005091320160913301709134017894CF55BC
:10357000DF4F88819981AA81BB81C15AD0408417CD
:103580009507A607B70748F481E090E00C2C01C02E
:10359000880F0A94EAF780951823F601EE0FFF1FB3
:1035A000E050FF4F818187708183112309F459C056
:1035B000212F30E00F5F063009F400E0C901002E32
:1035C00002C0959587950A94E2F780FFF3CF33E028
:1035D000C755DF4F3883C95AD040802FAED18823DA
:1035E000A9F08BE091D1CB54DF4F8881C55BD040EF
:1035F0008BD1CA54DF4F8881C65BD04085D1C95476
:10360000DF4F8881C75BD0407FD16ED1E02FF0E0E3
:10361000EE0FFF1FE050FF4F8181886F8183C455FB
:10362000DF4F4881CC5AD040842F90E0002E02C05A
:10363000959587950A94E2F780FD40C062E370E0BB
:10364000CE018B559F4FE7DBC755DF4F5881C95AD5
:10365000D0405150C755DF4F5883C95AD0408AEBEC
:10366000E82E31DCAA2009F4F0CD1092790286DC34
:1036700003E010E0812F61D1882329F088EE44D146
:103680008AEE42D131D11F5F1630A1F7015089F780
:1036900088EBF81216C080E090E0E0E0F0E02491C2
:1036A000820F911D3196E11527E1F207C1F7281627
:1036B000390639F408C0992089F06FCF68E770E0C7
:1036C000BFCF83E085DCC555DF4FE881CB5AD040C2
:1036D000E11102C082E001C081E084D111117DCFEF
:1036E000C0CFC755DF4FF881C95AD040FF2309F436
:1036F00034CF53CFF89404E00EBF0FEF0DBF789492
:10370000B9DC87EF84BF0FB6F894A895809160006C
:10371000886180936000109260000FBEC0E8C09383
:103720006100D1E0D09361002FEF80E792E021505B
:1037300080409040E1F700C00000F7DB85B7982F8C
:10374000916095BF826085BFC0BF84E880936400AC
:10375000809168008460809368005F9A729A589A9A
:10376000599A269A689A279A699A549A529A5E9A0E
:103770005D9A569A559AD0936E0082E080937000BD
:1037800088D084B18F6384B987B1806C87B978940D
:10379000D6D1F894C093610010926100789482D1E0
:1037A00004B601FE04C08DEF84BF81E0A3DF80E09A
:0E37B00019D180E09FDF76D181E09CDF09DC3B
:1038000031C00000FDCF0000FBCF0000F9CF000069
:10381000C2CB00001AC1000019C10000F7C10000AE
:103820007DC10000C8CF00009FC10000E7C00000BC
:10383000ACC100001AC10000ACCB0000BFCF00003B
:10384000E5C10000FFFEFDFBFAF8F5F2EEEAE6E066
:10385000DAD3CCC3BAB0A5998C7E6F5F4E3B2813E8
:103860000D09030111244DDFFC012281339690E004
:10387000215018F08191980FFBCF81E0923D09F023
:1038800080E008952E9870982F9871985C985A98B7
:1038900008958FEF87BD88BD16BC95B5906895BD1E
:1038A00095B5906495BD93EA94BD93E29093B00072
:1038B00090E89093B3008093B4001092B200E1EBD3
:1038C000F0E080818064808383B5806883BD83B5A8
:1038D000826083BD83B5816083BD82E085BD8083C6
:1038E00083B58F7783BD089580EB97E189DAEDE4A6
:1038F000F1E0118213AA1092B2011092E401109229
:1039000016021092480208950F931F93CF93DF93EE
:10391000082FC8E0D0E011E0812F802319F08CE05F
:1039200096E002C08EED9EE06BDA110F2197A1F7B1
:10393000DF91CF911F910F910895F89442E3849FF6
:10394000F0011124E35BFE4F95A5911103C091E0B6
:10395000918301C090E078949923C1F121E030E097
:10396000A90102C0440F551F8A95E2F7CA012091B0
:1039700081002111FCCF98E190938100109280008A
:10398000109285001092840021E030E0309389008D
:103990002093880093E0909380002CE036E03093F1
:1039A000890020938800B19A90916F009260909363
:1039B0006F0080938A008AB581608ABD89E1809317
:1039C000810080EB97E11CDA81E0089580E00895A2
:1039D00085EC80937A0080917A0086FDFCCF8091FF
:1039E00079000895C82FF894A0DAC093280104E064
:1039F0000EBF0FEF0DBF78940C9400001F920F9232
:103A00000FB60F9211248F939F9380918A0087B9EC
:103A100083B995E39A95F1F7000083B986B995E0EB
:103A20009A95F1F7000017B886B90AB400FC03C0F4
:103A30001092810003C08AB58E7F8ABD9F918F91BD
:103A40000F900FBE0F901F90189518951F920F9210
:103A50000FB60F9211248F9386B5809327018F9113
:103A60000F900FBE0F901F90189590E8899FF0015E
:103A70001124F89483E080935700E895789407B672
:103A800000FCFDCFF89485E080935700E89578948A
:103A900007B600FCFDCFF89481E180935700E895CC
:103AA000789408950F931F93CF93DF9310E020E055
:103AB00037E101E080E090E0E901C80FD91F8038CC
:103AC000910569F0FE0145915491F894FC010A01B9
:103AD00000935700E895112478940296EDCF812F3A
:103AE000C4DF1F5F1E3211F09E01E4CFDF91CF9142
:103AF0001F910F910895E0E0F0E091E0F894DB0170
:103B00002D913D91BD01090190935700E895112435
:103B100078943296E038F10589F7A7CF81E0809359
:103B20000C0180910C018111FCCFCDC9E0E0F1E0E6
:103B30008193919321E0EC30F207D1F7EFCF8EE63D
:103B400080937C0085EC80937A008DE58A95F1F76F
:103B500000003EDF3DDF3CDF3BDF10927A008A371A
:103B600010F082E035CA0895F894E1E3F1E0808135
:103B70009181A281B381805E9D4EA54FBF4F858309
:103B80009683A783B08778940895EEDFF89480E851
:103B90008093610081E080936100789415BC72DEAF
:103BA0001092B10014BC1092B0006B982FEF80E718
:103BB00092E0215080409040E1F700C000004F9B10
:103BC000FECF2FEF80E792E0215080409040E1F758
:103BD00000C0000080916D00806880936D0085E0DA
:103BE00083BF889580916D008F7780936D00F894E6
:103BF00050DEC4D97894A3DFF89480E88093610004
:103C00001092610078941092410108951F920F92D2
:103C10000FB60F921124EF92FF920F931F932F93E1
:103C20003F934F935F936F937F938F939F93AF9344
:103C3000BF93CF93DF93EF93FF9316B1109586B5A3
:103C400078948C5E96B59817E8F316B917B985E0A5
:103C50008A95F1F7000017B816B98091B20087FF76
:103C6000B3C0C091350180E28C0F8D3708F4A9C034
:103C70008091310190913201A0913301B0913401D2
:103C80000196A11DB11D8093310190933201A09343
:103C90003301B09334014091360150913701609166
:103CA000380170913901481759076A077B0708F4F2
:103CB0006CDF80913F0169B1562F5095551F5527F4
:103CC000551F90913E014091420120914301309156
:103CD0004401591349C04111415067FD2FC02115BE
:103CE000310529F02150310911F4109245016091FC
:103CF0004701709148016F5F7F4F70934801609357
:103D00004701613797E1790730F0806810924801E8
:103D10001092470149C0693B9BE0790710F080642D
:103D200043C0613B744008F43FC09091460191113B
:103D30003BC0826091E09093460136C02115310569
:103D400099F12150310981F590914501913011F49B
:103D5000886007C0923011F4806103C08062909344
:103D600040011092450120C041111DC090914501B4
:103D700067FD0BC081609F3F09F09F5F1092480173
:103D8000109247012AE431E007C084602115310513
:103D900009F490E0109246019093450150933E0142
:103DA00044E191E002C044E190E080933F01409300
:103DB000420130934401209343019111D5DE83EAFF
:103DC0008C0F8093350173C080912601909125015D
:103DD000C92FD0E0823009F441C028F4882351F083
:103DE0008130C9F062C0833009F445C0843009F4E1
:103DF00051C05BC047DDCC0FDD1FCC0FDD1FC050B5
:103E0000DF4F8F858F3F29F083E28093B000539A74
:103E10006B9A81E04AC06B98923081F030F499231C
:103E200059F0913081F4709A0EC0943059F040F0FE
:103E3000953049F45A9A07C02E9A05C02F9A03C0AC
:103E4000719A01C05C9ACC0FDD1FCC0FDD1FC050F2
:103E5000DF4F8F858093B40082E027C08FEF80937F
:103E6000B400CC0FDD1FCC0FDD1FC050DF4F8D85A0
:103E700087BD83E01AC053988093B0008FEF87BD51
:103E8000CC0FDD1FCC0FDD1FC050DF4F8E8588BDEE
:103E900084E00BC08FEF88BD9F5F963019F41092BD
:103EA0000C0190E09093250180E080932601C7E407
:103EB000D2E000E2F12CEE24E3949CA5802F812334
:103EC00009F43EC08DA59430D0F48823B1F192302E
:103ED00010F490E801C090E0282F2695922B80FFE7
:103EE0002BC08A81883248F48A81FE01E80FF11DD7
:103EF00093838A818F5F8A8338C01A8214C0973077
:103F0000E0F4803891F49A819923B9F0E8828B81AA
:103F10008B3049F48A81843031F4CE01A5DC8823CA
:103F200011F0FF24F39480E008C09881911105C03E
:103F300099819923C9F001C0892F8DA71CA606C0BD
:103F4000983018F49F5F9CA701C01DA6E2970695C4
:103F500081E0CB31D80709F0B0CFFF2041F080914C
:103F60007902811104C025DC1A8280E8E6CFFF9136
:103F7000EF91DF91CF91BF91AF919F918F917F9101
:103F80006F915F914F913F912F911F910F91FF90F2
:0C3F9000EF900F900FBE0F901F9018953F
:00000001FF
